{
  "contractName": "MashUpTraderApp",
  "abi": [
    {
      "inputs": [
        {
          "internalType": "address",
          "name": "deployedAddress",
          "type": "address"
        },
        {
          "internalType": "uint256",
          "name": "tokenId",
          "type": "uint256"
        }
      ],
      "payable": false,
      "stateMutability": "nonpayable",
      "type": "constructor"
    },
    {
      "anonymous": false,
      "inputs": [
        {
          "indexed": false,
          "internalType": "address",
          "name": "withdrawer",
          "type": "address"
        }
      ],
      "name": "PaymentWithdrawn",
      "type": "event"
    },
    {
      "anonymous": false,
      "inputs": [
        {
          "indexed": false,
          "internalType": "address",
          "name": "changer",
          "type": "address"
        },
        {
          "indexed": false,
          "internalType": "uint256",
          "name": "oldPriceInWei",
          "type": "uint256"
        },
        {
          "indexed": false,
          "internalType": "uint256",
          "name": "newPriceInWei",
          "type": "uint256"
        }
      ],
      "name": "PriceChanged",
      "type": "event"
    },
    {
      "anonymous": false,
      "inputs": [
        {
          "indexed": false,
          "internalType": "address",
          "name": "newOwner",
          "type": "address"
        },
        {
          "indexed": false,
          "internalType": "uint256",
          "name": "weiAmount",
          "type": "uint256"
        }
      ],
      "name": "Purchased",
      "type": "event"
    },
    {
      "constant": true,
      "inputs": [],
      "name": "mashupToken",
      "outputs": [
        {
          "internalType": "contract MashUpToken",
          "name": "",
          "type": "address"
        }
      ],
      "payable": false,
      "stateMutability": "view",
      "type": "function"
    },
    {
      "constant": true,
      "inputs": [],
      "name": "mashupTokenId",
      "outputs": [
        {
          "internalType": "uint256",
          "name": "",
          "type": "uint256"
        }
      ],
      "payable": false,
      "stateMutability": "view",
      "type": "function"
    },
    {
      "constant": true,
      "inputs": [],
      "name": "tokenPrice",
      "outputs": [
        {
          "internalType": "uint256",
          "name": "",
          "type": "uint256"
        }
      ],
      "payable": false,
      "stateMutability": "view",
      "type": "function"
    },
    {
      "constant": false,
      "inputs": [],
      "name": "purchase",
      "outputs": [],
      "payable": true,
      "stateMutability": "payable",
      "type": "function"
    },
    {
      "constant": false,
      "inputs": [
        {
          "internalType": "uint256",
          "name": "newPrice",
          "type": "uint256"
        }
      ],
      "name": "setTokenPrice",
      "outputs": [],
      "payable": false,
      "stateMutability": "nonpayable",
      "type": "function"
    },
    {
      "constant": true,
      "inputs": [],
      "name": "getOwner",
      "outputs": [
        {
          "internalType": "address",
          "name": "",
          "type": "address"
        }
      ],
      "payable": false,
      "stateMutability": "view",
      "type": "function"
    },
    {
      "constant": true,
      "inputs": [],
      "name": "getBalance",
      "outputs": [
        {
          "internalType": "uint256",
          "name": "",
          "type": "uint256"
        }
      ],
      "payable": false,
      "stateMutability": "view",
      "type": "function"
    },
    {
      "constant": false,
      "inputs": [],
      "name": "withdraw",
      "outputs": [],
      "payable": false,
      "stateMutability": "nonpayable",
      "type": "function"
    },
    {
      "constant": true,
      "inputs": [],
      "name": "getTokenURI",
      "outputs": [
        {
          "internalType": "string",
          "name": "",
          "type": "string"
        }
      ],
      "payable": false,
      "stateMutability": "view",
      "type": "function"
    },
    {
      "constant": true,
      "inputs": [
        {
          "internalType": "address",
          "name": "possibleFranchisor",
          "type": "address"
        }
      ],
      "name": "isTokenFranchisor",
      "outputs": [
        {
          "internalType": "bool",
          "name": "",
          "type": "bool"
        }
      ],
      "payable": false,
      "stateMutability": "view",
      "type": "function"
    }
  ],
  "bytecode": "0x608060405234801561001057600080fd5b50604051610e87380380610e878339818101604052604081101561003357600080fd5b810190808051906020019092919080519060200190929190505050816000806101000a81548173ffffffffffffffffffffffffffffffffffffffff021916908373ffffffffffffffffffffffffffffffffffffffff160217905550806001819055505050610de1806100a66000396000f3fe6080604052600436106100915760003560e01c80636a61e5fc116100595780636a61e5fc146101645780637ff9b5961461019f578063893d20e8146101ca5780638a421b7414610221578063d4a191161461028a57610091565b806301f586a2146100965780630c050fa9146100c157806312065fe0146101185780633ccfd60b1461014357806364edfbf01461015a575b600080fd5b3480156100a257600080fd5b506100ab61031a565b6040518082815260200191505060405180910390f35b3480156100cd57600080fd5b506100d6610320565b604051808273ffffffffffffffffffffffffffffffffffffffff1673ffffffffffffffffffffffffffffffffffffffff16815260200191505060405180910390f35b34801561012457600080fd5b5061012d610345565b6040518082815260200191505060405180910390f35b34801561014f57600080fd5b5061015861042f565b005b610162610556565b005b34801561017057600080fd5b5061019d6004803603602081101561018757600080fd5b8101908080359060200190929190505050610849565b005b3480156101ab57600080fd5b506101b4610a06565b6040518082815260200191505060405180910390f35b3480156101d657600080fd5b506101df610a0c565b604051808273ffffffffffffffffffffffffffffffffffffffff1673ffffffffffffffffffffffffffffffffffffffff16815260200191505060405180910390f35b34801561022d57600080fd5b506102706004803603602081101561024457600080fd5b81019080803573ffffffffffffffffffffffffffffffffffffffff169060200190929190505050610ac2565b604051808215151515815260200191505060405180910390f35b34801561029657600080fd5b5061029f610bae565b6040518080602001828103825283818151815260200191508051906020019080838360005b838110156102df5780820151818401526020810190506102c4565b50505050905090810190601f16801561030c5780820380516001836020036101000a031916815260200191505b509250505060405180910390f35b60015481565b6000809054906101000a900473ffffffffffffffffffffffffffffffffffffffff1681565b60008060009054906101000a900473ffffffffffffffffffffffffffffffffffffffff1673ffffffffffffffffffffffffffffffffffffffff1663919c3db5336001546040518363ffffffff1660e01b8152600401808373ffffffffffffffffffffffffffffffffffffffff1673ffffffffffffffffffffffffffffffffffffffff1681526020018281526020019250505060206040518083038186803b1580156103ef57600080fd5b505afa158015610403573d6000803e3d6000fd5b505050506040513d602081101561041957600080fd5b8101908080519060200190929190505050905090565b6000809054906101000a900473ffffffffffffffffffffffffffffffffffffffff1673ffffffffffffffffffffffffffffffffffffffff16630e2cdba7336001546040518363ffffffff1660e01b8152600401808373ffffffffffffffffffffffffffffffffffffffff1673ffffffffffffffffffffffffffffffffffffffff16815260200182815260200192505050600060405180830381600087803b1580156104d957600080fd5b505af11580156104ed573d6000803e3d6000fd5b505050507f832e43df4de2c3bcddde0796ab3950a40343a9a1f5f39d6b25c0d670877f4e2233604051808273ffffffffffffffffffffffffffffffffffffffff1673ffffffffffffffffffffffffffffffffffffffff16815260200191505060405180910390a1565b6000600254116105b1576040517f08c379a000000000000000000000000000000000000000000000000000000000815260040180806020018281038252603a815260200180610d23603a913960400191505060405180910390fd5b600254341461060b576040517f08c379a0000000000000000000000000000000000000000000000000000000008152600401808060200182810382526027815260200180610d5d6027913960400191505060405180910390fd5b600033905060008060009054906101000a900473ffffffffffffffffffffffffffffffffffffffff1673ffffffffffffffffffffffffffffffffffffffff16636352211e6001546040518263ffffffff1660e01b81526004018082815260200191505060206040518083038186803b15801561068657600080fd5b505afa15801561069a573d6000803e3d6000fd5b505050506040513d60208110156106b057600080fd5b810190808051906020019092919050505090506000809054906101000a900473ffffffffffffffffffffffffffffffffffffffff1673ffffffffffffffffffffffffffffffffffffffff1663b88d4fde3483856001546040518563ffffffff1660e01b8152600401808473ffffffffffffffffffffffffffffffffffffffff1673ffffffffffffffffffffffffffffffffffffffff1681526020018373ffffffffffffffffffffffffffffffffffffffff1673ffffffffffffffffffffffffffffffffffffffff168152602001828152602001806020018281038252600081526020016020019450505050506000604051808303818588803b1580156107b557600080fd5b505af11580156107c9573d6000803e3d6000fd5b50505050506107d86000610849565b7fa512fb2532ca8587f236380171326ebb69670e86a2ba0c4412a3fcca4c3ada9b82600254604051808373ffffffffffffffffffffffffffffffffffffffff1673ffffffffffffffffffffffffffffffffffffffff1681526020018281526020019250505060405180910390a15050565b60008060009054906101000a900473ffffffffffffffffffffffffffffffffffffffff1673ffffffffffffffffffffffffffffffffffffffff16636352211e6001546040518263ffffffff1660e01b81526004018082815260200191505060206040518083038186803b1580156108bf57600080fd5b505afa1580156108d3573d6000803e3d6000fd5b505050506040513d60208110156108e957600080fd5b810190808051906020019092919050505090508073ffffffffffffffffffffffffffffffffffffffff163373ffffffffffffffffffffffffffffffffffffffff1614610980576040517f08c379a0000000000000000000000000000000000000000000000000000000008152600401808060200182810382526029815260200180610d846029913960400191505060405180910390fd5b60006002549050826002819055507f4d624906ce6fd4e4b8b649463516ff505029a1903a8cc34bd82b4ca0f9a479de338285604051808473ffffffffffffffffffffffffffffffffffffffff1673ffffffffffffffffffffffffffffffffffffffff168152602001838152602001828152602001935050505060405180910390a1505050565b60025481565b60008060009054906101000a900473ffffffffffffffffffffffffffffffffffffffff1673ffffffffffffffffffffffffffffffffffffffff16636352211e6001546040518263ffffffff1660e01b81526004018082815260200191505060206040518083038186803b158015610a8257600080fd5b505afa158015610a96573d6000803e3d6000fd5b505050506040513d6020811015610aac57600080fd5b8101908080519060200190929190505050905090565b60008060009054906101000a900473ffffffffffffffffffffffffffffffffffffffff1673ffffffffffffffffffffffffffffffffffffffff1663a2378bdf836001546040518363ffffffff1660e01b8152600401808373ffffffffffffffffffffffffffffffffffffffff1673ffffffffffffffffffffffffffffffffffffffff1681526020018281526020019250505060206040518083038186803b158015610b6c57600080fd5b505afa158015610b80573d6000803e3d6000fd5b505050506040513d6020811015610b9657600080fd5b81019080805190602001909291905050509050919050565b60606000809054906101000a900473ffffffffffffffffffffffffffffffffffffffff1673ffffffffffffffffffffffffffffffffffffffff1663c87b56dd6001546040518263ffffffff1660e01b81526004018082815260200191505060006040518083038186803b158015610c2457600080fd5b505afa158015610c38573d6000803e3d6000fd5b505050506040513d6000823e3d601f19601f820116820180604052506020811015610c6257600080fd5b8101908080516040519392919084640100000000821115610c8257600080fd5b83820191506020820185811115610c9857600080fd5b8251866001820283011164010000000082111715610cb557600080fd5b8083526020830192505050908051906020019080838360005b83811015610ce9578082015181840152602081019050610cce565b50505050905090810190601f168015610d165780820380516001836020036101000a031916815260200191505b5060405250505090509056fe546f6b656e206d7573742068617665206e6f6e2d7a65726f207072696365206265666f72652069742063616e206265206672616e6368697365644d7573742070726f766964652065746820746f206672616e63686973652074686520746f6b656e4f6e6c7920746865206f776e65722063616e206368616e67652074686520746f6b656e207072696365a265627a7a723158206fd6e9789c84ee9e4574a65a7270113f5e7db61342ee2fe54f21c6ea56d5e3f064736f6c63430005100032",
  "source": "pragma solidity ^0.5.4;\n\nimport \"./MashUpToken.sol\";\n\n\ncontract MashUpTraderApp {\n    // The mashup token contract\n    MashUpToken public mashupToken;\n    // Only trading one token for this dApp, this is the ID for the token\n    uint256 public mashupTokenId;\n    // Only one token traded only requires one price to store\n    uint256 public tokenPrice;\n\n    event Purchased(address newOwner, uint256 weiAmount);\n    event PriceChanged(\n        address changer,\n        uint256 oldPriceInWei,\n        uint256 newPriceInWei\n    );\n    event PaymentWithdrawn(address withdrawer);\n\n    /**\n     * @notice Create a new MashUp Token trading app\n     *\n     * @param deployedAddress address Deployed address of the MashUpToken contract\n     * @param tokenId uint256 TokenID to trade with this app\n     */\n    constructor(address deployedAddress, uint256 tokenId) public {\n        mashupToken = MashUpToken(deployedAddress);\n        mashupTokenId = tokenId;\n    }\n\n    /**\n     * @notice Provides a way to become a franchisor of a MashUp token for a fee\n     * Emits a Purchased event\n     */\n    function purchase() public payable {\n        require(\n            tokenPrice > 0,\n            \"Token must have non-zero price before it can be franchised\"\n        );\n        require(\n            msg.value == tokenPrice,\n            \"Must provide eth to franchise the token\"\n        );\n\n        address newOwner = msg.sender;\n        address owner = mashupToken.ownerOf(mashupTokenId);\n        // Do the token transfer\n        mashupToken.safeTransferFrom.value(msg.value)(\n            owner,\n            newOwner,\n            mashupTokenId,\n            \"\"\n        );\n        // set the price to zero to prevent purchase\n        setTokenPrice(0);\n\n        emit Purchased(newOwner, tokenPrice);\n    }\n\n    /**\n     * @notice Sets the token price given a tokenId\n     * Emits a PriceChanged event\n     * @param newPrice uint256 The new token price in Wei\n     */\n    function setTokenPrice(uint256 newPrice) public {\n        address currentOwner = mashupToken.ownerOf(mashupTokenId);\n        // TODO: Or allow minter to do this\n        require(\n            msg.sender == currentOwner,\n            \"Only the owner can change the token price\"\n        );\n        uint256 oldPrice = tokenPrice;\n        tokenPrice = newPrice;\n\n        emit PriceChanged(msg.sender, oldPrice, newPrice);\n    }\n\n    /**\n     * @notice Gets current token owner\n     * @return address Address of current owner\n     */\n    function getOwner() public view returns (address) {\n        return mashupToken.ownerOf(mashupTokenId);\n    }\n\n    /**\n     * @notice Gets current payment balance of your token payments\n     * @return uint256 Payment balance in Wei\n     */\n    function getBalance() public view returns (uint256) {\n        return mashupToken.paymentBalanceOf(msg.sender, mashupTokenId);\n    }\n\n    /**\n     * @notice Use to widthraws eth from the payments you recieved during franchising\n     * Emits a PaymentWithdrawn event\n     * @dev Calls the withdrawPayment function on the MashUpToken\n     */\n    function withdraw() public {\n        mashupToken.withdrawPayment(msg.sender, mashupTokenId);\n\n        emit PaymentWithdrawn(msg.sender);\n    }\n\n    /**\n     * @notice  Gets the metadataURI for the token\n     * @return string token URI\n     */\n    function getTokenURI() public view returns (string memory) {\n        return mashupToken.tokenURI(mashupTokenId);\n    }\n\n    /**\n     * @notice Returns true/false if the address provided is for a franchisor\n     * @param possibleFranchisor address The address of the account\n     * @return bool\n     */\n    function isTokenFranchisor(address possibleFranchisor)\n        public\n        view\n        returns (bool)\n    {\n        return\n            mashupToken.isTokenFranchisor(possibleFranchisor, mashupTokenId);\n    }\n}\n",
  "sourcePath": "/Users/ivanmolto/Documents/Dev/mashup-app-contracts/contracts/MashUpTraderApp.sol",
  "compiler": {
    "name": "solc",
    "version": "0.5.16+commit.9c3226ce.Emscripten.clang"
  },
  "schemaVersion": "3.3.2",
  "updatedAt": "2020-12-15T11:00:13.633Z",
  "networkType": "ethereum",
  "devdoc": {
    "methods": {
      "constructor": {
        "params": {
          "deployedAddress": "address Deployed address of the MashUpToken contract",
          "tokenId": "uint256 TokenID to trade with this app"
        }
      },
      "getBalance()": {
        "return": "uint256 Payment balance in Wei"
      },
      "getOwner()": {
        "return": "address Address of current owner"
      },
      "getTokenURI()": {
        "return": "string token URI"
      },
      "isTokenFranchisor(address)": {
        "params": {
          "possibleFranchisor": "address The address of the account"
        },
        "return": "bool"
      },
      "setTokenPrice(uint256)": {
        "params": {
          "newPrice": "uint256 The new token price in Wei"
        }
      },
      "withdraw()": {
        "details": "Calls the withdrawPayment function on the MashUpToken"
      }
    }
  },
  "userdoc": {
    "methods": {
      "constructor": "Create a new MashUp Token trading app",
      "getBalance()": {
        "notice": "Gets current payment balance of your token payments"
      },
      "getOwner()": {
        "notice": "Gets current token owner"
      },
      "getTokenURI()": {
        "notice": "Gets the metadataURI for the token"
      },
      "isTokenFranchisor(address)": {
        "notice": "Returns true/false if the address provided is for a franchisor"
      },
      "purchase()": {
        "notice": "Provides a way to become a franchisor of a MashUp token for a fee Emits a Purchased event"
      },
      "setTokenPrice(uint256)": {
        "notice": "Sets the token price given a tokenId Emits a PriceChanged event"
      },
      "withdraw()": {
        "notice": "Use to widthraws eth from the payments you recieved during franchising Emits a PaymentWithdrawn event"
      }
    }
  }
}